Archive member included to satisfy reference by file (symbol)

C:\Local_OpellaXD\firmware\prj\fw_lpc1837\lpc_chip_18xx\Release\liblpc_chip_18xx.a(timer_18xx_43xx.o)
                              ./src/arclayer.o (Chip_TIMER_Reset)
C:\Local_OpellaXD\firmware\prj\fw_lpc1837\lpc_chip_18xx\Release\liblpc_chip_18xx.a(clock_18xx_43xx.o)
                              C:\Local_OpellaXD\firmware\prj\fw_lpc1837\lpc_chip_18xx\Release\liblpc_chip_18xx.a(timer_18xx_43xx.o) (Chip_Clock_Enable)
c:/nxp/mcuxpressoide_11.0.0_2516/ide/plugins/com.nxp.mcuxpresso.tools.win32_11.0.0.201905131304/tools/bin/../lib/gcc/arm-none-eabi/8.2.1/../../../../arm-none-eabi/lib/thumb/v7-m/nofp\libcr_c.a(memset.o)
                              ./src/arccomm.o (memset)
c:/nxp/mcuxpressoide_11.0.0_2516/ide/plugins/com.nxp.mcuxpresso.tools.win32_11.0.0.201905131304/tools/bin/../lib/gcc/arm-none-eabi/8.2.1/thumb/v7-m/nofp\libcr_eabihelpers.a(memcpy.o)
                              c:/nxp/mcuxpressoide_11.0.0_2516/ide/plugins/com.nxp.mcuxpresso.tools.win32_11.0.0.201905131304/tools/bin/../lib/gcc/arm-none-eabi/8.2.1/../../../../arm-none-eabi/lib/thumb/v7-m/nofp\libcr_c.a(memset.o) (__aeabi_lowlevel_memset)

Allocating common symbols
Common symbol       size              file

ptyFwApi            0x4               ./src/arcdw.o
tyDwArcConfig       0x403             ./src/arclayer.o

Discarded input sections

 .text          0x00000000        0x0 ./src/arccomm.o
 .data          0x00000000        0x0 ./src/arccomm.o
 .bss           0x00000000        0x0 ./src/arccomm.o
 .text          0x00000000        0x0 ./src/arcdw.o
 .data          0x00000000        0x0 ./src/arcdw.o
 .bss           0x00000000        0x0 ./src/arcdw.o
 .text          0x00000000        0x0 ./src/arclayer.o
 .data          0x00000000        0x0 ./src/arclayer.o
 .bss           0x00000000        0x0 ./src/arclayer.o
 .text          0x00000000        0x0 C:\Local_OpellaXD\firmware\prj\fw_lpc1837\lpc_chip_18xx\Release\liblpc_chip_18xx.a(timer_18xx_43xx.o)
 .data          0x00000000        0x0 C:\Local_OpellaXD\firmware\prj\fw_lpc1837\lpc_chip_18xx\Release\liblpc_chip_18xx.a(timer_18xx_43xx.o)
 .bss           0x00000000        0x0 C:\Local_OpellaXD\firmware\prj\fw_lpc1837\lpc_chip_18xx\Release\liblpc_chip_18xx.a(timer_18xx_43xx.o)
 .text.Chip_TIMER_Init
                0x00000000       0x2c C:\Local_OpellaXD\firmware\prj\fw_lpc1837\lpc_chip_18xx\Release\liblpc_chip_18xx.a(timer_18xx_43xx.o)
 .text.Chip_TIMER_DeInit
                0x00000000       0x2c C:\Local_OpellaXD\firmware\prj\fw_lpc1837\lpc_chip_18xx\Release\liblpc_chip_18xx.a(timer_18xx_43xx.o)
 .text.Chip_TIMER_ExtMatchControlSet
                0x00000000       0x26 C:\Local_OpellaXD\firmware\prj\fw_lpc1837\lpc_chip_18xx\Release\liblpc_chip_18xx.a(timer_18xx_43xx.o)
Memory Configuration

Name             Origin             Length             Attributes
ARC_RAM_AREA     0x10080800         0x00000800         xrw
ARC_DW_INIT      0x1d0b0000         0x00000040         xrw
ARC_CMD_PROCESSING 0x1d0b0040         0x00000040         xrw
ARC_DW_IDENT     0x1d0b0080         0x00000080         xr
ARC_CODE_AREA    0x1d0b0100         0x0000ff00         xr
*default*        0x00000000         0xffffffff

Linker script and memory map

LOAD ./src/arccomm.o
LOAD ./src/arcdw.o
LOAD ./src/arclayer.o
LOAD C:\Local_OpellaXD\firmware\prj\fw_lpc1837\lpc_chip_18xx\Release\liblpc_chip_18xx.a
START GROUP
LOAD c:/nxp/mcuxpressoide_11.0.0_2516/ide/plugins/com.nxp.mcuxpresso.tools.win32_11.0.0.201905131304/tools/bin/../lib/gcc/arm-none-eabi/8.2.1/../../../../arm-none-eabi/lib/thumb/v7-m/nofp\libcr_semihost.a
LOAD c:/nxp/mcuxpressoide_11.0.0_2516/ide/plugins/com.nxp.mcuxpresso.tools.win32_11.0.0.201905131304/tools/bin/../lib/gcc/arm-none-eabi/8.2.1/../../../../arm-none-eabi/lib/thumb/v7-m/nofp\libcr_c.a
LOAD c:/nxp/mcuxpressoide_11.0.0_2516/ide/plugins/com.nxp.mcuxpresso.tools.win32_11.0.0.201905131304/tools/bin/../lib/gcc/arm-none-eabi/8.2.1/thumb/v7-m/nofp\libcr_eabihelpers.a
END GROUP
                0x10081000                __top_ARC_RAM_AREA = 0x10081000
                0x1d0b0040                __top_ARC_DW_INIT = 0x1d0b0040
                0x1d0b0080                __top_ARC_CMD_PROCESSING = 0x1d0b0080
                0x1d0b0100                __top_ARC_DW_IDENT = 0x1d0b0100
                0x1d0c0000                __top_ARC_CODE_AREA = 0x1d0c0000

.text_1         0x1d0b0000       0x1c
 FILL mask 0xff
 *(.text_ARC_DW_INIT*)
 .text_ARC_DW_INIT
                0x1d0b0000       0x1c ./src/arcdw.o
                0x1d0b0000                InitArcDW

.text_2         0x1d0b0040       0x1c
 FILL mask 0xff
 *(.text_ARC_CMD_PROCESSING*)
 .text_ARC_CMD_PROCESSING
                0x1d0b0040       0x1c ./src/arcdw.o
                0x1d0b0040                ProcessArcCommandDW

.text           0x1d0b0100     0x24c8
 FILL mask 0xff
 *(.text.ARCL_*)
 .text.ARCL_SenseTargetReset.part.0
                0x1d0b0100       0x30 ./src/arclayer.o
 .text.ARCL_WriteWordsOptimized.part.2
                0x1d0b0130      0x580 ./src/arclayer.o
 .text.ARCL_InitializeJtagForArc
                0x1d0b06b0       0x84 ./src/arclayer.o
                0x1d0b06b0                ARCL_InitializeJtagForArc
 .text.ARCL_SelectArcTarget
                0x1d0b0734      0x184 ./src/arclayer.o
                0x1d0b0734                ARCL_SelectArcTarget
 .text.ARCL_InitializeVariables
                0x1d0b08b8       0x30 ./src/arclayer.o
                0x1d0b08b8                ARCL_InitializeVariables
 .text.ARCL_SetArcCoreConfig
                0x1d0b08e8       0x28 ./src/arclayer.o
                0x1d0b08e8                ARCL_SetArcCoreConfig
 .text.ARCL_TargetReset
                0x1d0b0910       0x88 ./src/arclayer.o
                0x1d0b0910                ARCL_TargetReset
 .text.ARCL_TargetDebug
                0x1d0b0998       0x54 ./src/arclayer.o
                0x1d0b0998                ARCL_TargetDebug
 .text.ARCL_SenseTargetReset
                0x1d0b09ec       0x1c ./src/arclayer.o
                0x1d0b09ec                ARCL_SenseTargetReset
 .text.ARCL_SetAAModePins
                0x1d0b0a08       0x40 ./src/arclayer.o
                0x1d0b0a08                ARCL_SetAAModePins
 .text.ARCL_GetAAModePins
                0x1d0b0a48       0x5c ./src/arclayer.o
                0x1d0b0a48                ARCL_GetAAModePins
 .text.ARCL_SetAABlastPins
                0x1d0b0aa4       0x9c ./src/arclayer.o
                0x1d0b0aa4                ARCL_SetAABlastPins
 .text.ARCL_BlastAAFpga
                0x1d0b0b40      0x17c ./src/arclayer.o
                0x1d0b0b40                ARCL_BlastAAFpga
 .text.ARCL_DoAAExtendedCommand
                0x1d0b0cbc      0x314 ./src/arclayer.o
                0x1d0b0cbc                ARCL_DoAAExtendedCommand
 .text.ARCL_WriteWord
                0x1d0b0fd0      0x2fc ./src/arclayer.o
                0x1d0b0fd0                ARCL_WriteWord
 .text.ARCL_WriteWords
                0x1d0b12cc      0x270 ./src/arclayer.o
                0x1d0b12cc                ARCL_WriteWords
 .text.ARCL_ReadWord
                0x1d0b153c      0x28c ./src/arclayer.o
                0x1d0b153c                ARCL_ReadWord
 .text.ARCL_ReadWordsOptimized
                0x1d0b17c8      0x6ec ./src/arclayer.o
                0x1d0b17c8                ARCL_ReadWordsOptimized
 .text.ARCL_ReadWords
                0x1d0b1eb4      0x210 ./src/arclayer.o
                0x1d0b1eb4                ARCL_ReadWords
 .text.ARCL_WriteWordsOptimized
                0x1d0b20c4       0x10 ./src/arclayer.o
                0x1d0b20c4                ARCL_WriteWordsOptimized
 *(.rodata .rodata.* .constdata .constdata.*)
 *(.text*)
 .text.InitBSCITraceDMAandFPGAInterrupt
                0x1d0b20d4       0x50 ./src/arccomm.o
                0x1d0b20d4                InitBSCITraceDMAandFPGAInterrupt
 .text.DeinitBSCITraceDMAandFPGAInterrupt
                0x1d0b2124       0x20 ./src/arccomm.o
                0x1d0b2124                DeinitBSCITraceDMAandFPGAInterrupt
 .text.FlushBuffers
                0x1d0b2144       0x68 ./src/arccomm.o
                0x1d0b2144                FlushBuffers
 .text.ProcessArcCommand
                0x1d0b21ac      0x344 ./src/arccomm.o
                0x1d0b21ac                ProcessArcCommand
 .text.NVIC_EnableIRQ
                0x1d0b24f0       0x18 ./src/arccomm.o
 .text.NVIC_DisableIRQ
                0x1d0b2508       0x1c ./src/arccomm.o
 .text.NVIC_ClearPendingIRQ
                0x1d0b2524       0x1c ./src/arccomm.o
 .text.dw_main  0x1d0b2540       0x20 ./src/arcdw.o
                0x1d0b2540                dw_main
 .text.main     0x1d0b2560       0x1a ./src/arcdw.o
                0x1d0b2560                main
 .text.Chip_TIMER_Reset
                0x1d0b257a       0x18 C:\Local_OpellaXD\firmware\prj\fw_lpc1837\lpc_chip_18xx\Release\liblpc_chip_18xx.a(timer_18xx_43xx.o)
                0x1d0b257a                Chip_TIMER_Reset
 .text.memset   0x1d0b2592        0x4 c:/nxp/mcuxpressoide_11.0.0_2516/ide/plugins/com.nxp.mcuxpresso.tools.win32_11.0.0.201905131304/tools/bin/../lib/gcc/arm-none-eabi/8.2.1/../../../../arm-none-eabi/lib/thumb/v7-m/nofp\libcr_c.a(memset.o)
                0x1d0b2592                memset
 .text.__aeabi_memset_lowlevel
                0x1d0b2596       0x32 c:/nxp/mcuxpressoide_11.0.0_2516/ide/plugins/com.nxp.mcuxpresso.tools.win32_11.0.0.201905131304/tools/bin/../lib/gcc/arm-none-eabi/8.2.1/thumb/v7-m/nofp\libcr_eabihelpers.a(memcpy.o)
                0x1d0b2596                __aeabi_lowlevel_memset

.glue_7         0x1d0b25c8        0x0
 .glue_7        0x1d0b25c8        0x0 linker stubs

.glue_7t        0x1d0b25c8        0x0
 .glue_7t       0x1d0b25c8        0x0 linker stubs

.vfp11_veneer   0x1d0b25c8        0x0
 .vfp11_veneer  0x1d0b25c8        0x0 linker stubs

.v4_bx          0x1d0b25c8        0x0
 .v4_bx         0x1d0b25c8        0x0 linker stubs

.iplt           0x1d0b25c8        0x0
 .iplt          0x1d0b25c8        0x0 ./src/arccomm.o

.rel.dyn        0x1d0b25c8        0x0
 .rel.iplt      0x1d0b25c8        0x0 ./src/arccomm.o

.data_dw_id     0x1d0b0080       0x1c
 FILL mask 0xff
 *(.data.$ARC_DW_IDENT*)
 .data.$ARC_DW_IDENT
                0x1d0b0080       0x1c ./src/arcdw.o
                0x1d0b0080                tyDW_Ident
 *(.data.$ARC_DW_IDENT*)
                0x1d0b009c                . = ALIGN (0x4)

.data           0x10080800        0x0
                0x10080800                . = ALIGN (0x4)
 *(.data*)
                [!provide]                PROVIDE (end = .)

.igot.plt       0x10080800        0x0
 .igot.plt      0x10080800        0x0 ./src/arccomm.o

.bss            0x10080800      0x40b
                0x10080800                . = ALIGN (0x4)
 *(.bss*)
 .bss.usCurrentCore
                0x10080800        0x2 ./src/arccomm.o
                0x10080800                usCurrentCore
 *(COMMON)
 *fill*         0x10080802        0x2 
 COMMON         0x10080804        0x4 ./src/arcdw.o
                0x10080804                ptyFwApi
 COMMON         0x10080808      0x403 ./src/arclayer.o
                0x10080808                tyDwArcConfig
                [!provide]                PROVIDE (end = .)
                [!provide]                PROVIDE (_pvHeapStart = .)
OUTPUT(opxdarc.axf elf32-littlearm)

.debug_info     0x00000000     0x8b9f
 .debug_info    0x00000000     0x2bef ./src/arccomm.o
 .debug_info    0x00002bef     0x2443 ./src/arcdw.o
 .debug_info    0x00005032     0x3580 ./src/arclayer.o
 .debug_info    0x000085b2      0x5ed C:\Local_OpellaXD\firmware\prj\fw_lpc1837\lpc_chip_18xx\Release\liblpc_chip_18xx.a(timer_18xx_43xx.o)

.debug_abbrev   0x00000000      0xc93
 .debug_abbrev  0x00000000      0x341 ./src/arccomm.o
 .debug_abbrev  0x00000341      0x259 ./src/arcdw.o
 .debug_abbrev  0x0000059a      0x4f7 ./src/arclayer.o
 .debug_abbrev  0x00000a91      0x202 C:\Local_OpellaXD\firmware\prj\fw_lpc1837\lpc_chip_18xx\Release\liblpc_chip_18xx.a(timer_18xx_43xx.o)

.debug_loc      0x00000000     0x3f6d
 .debug_loc     0x00000000      0x452 ./src/arccomm.o
 .debug_loc     0x00000452       0xf2 ./src/arcdw.o
 .debug_loc     0x00000544     0x37e4 ./src/arclayer.o
 .debug_loc     0x00003d28      0x245 C:\Local_OpellaXD\firmware\prj\fw_lpc1837\lpc_chip_18xx\Release\liblpc_chip_18xx.a(timer_18xx_43xx.o)

.debug_aranges  0x00000000      0x178
 .debug_aranges
                0x00000000       0x50 ./src/arccomm.o
 .debug_aranges
                0x00000050       0x38 ./src/arcdw.o
 .debug_aranges
                0x00000088       0xb8 ./src/arclayer.o
 .debug_aranges
                0x00000140       0x38 C:\Local_OpellaXD\firmware\prj\fw_lpc1837\lpc_chip_18xx\Release\liblpc_chip_18xx.a(timer_18xx_43xx.o)

.debug_ranges   0x00000000      0xac0
 .debug_ranges  0x00000000      0x108 ./src/arccomm.o
 .debug_ranges  0x00000108       0x28 ./src/arcdw.o
 .debug_ranges  0x00000130      0x938 ./src/arclayer.o
 .debug_ranges  0x00000a68       0x58 C:\Local_OpellaXD\firmware\prj\fw_lpc1837\lpc_chip_18xx\Release\liblpc_chip_18xx.a(timer_18xx_43xx.o)

.debug_line     0x00000000     0x3e06
 .debug_line    0x00000000      0x9f5 ./src/arccomm.o
 .debug_line    0x000009f5      0x47d ./src/arcdw.o
 .debug_line    0x00000e72     0x2c94 ./src/arclayer.o
 .debug_line    0x00003b06      0x300 C:\Local_OpellaXD\firmware\prj\fw_lpc1837\lpc_chip_18xx\Release\liblpc_chip_18xx.a(timer_18xx_43xx.o)

.debug_str      0x00000000     0x395f
 .debug_str     0x00000000     0x3003 ./src/arccomm.o
                               0x31be (size before relaxing)
 .debug_str     0x00003003      0x114 ./src/arcdw.o
                               0x2bae (size before relaxing)
 .debug_str     0x00003117      0x5e3 ./src/arclayer.o
                               0x2935 (size before relaxing)
 .debug_str     0x000036fa      0x265 C:\Local_OpellaXD\firmware\prj\fw_lpc1837\lpc_chip_18xx\Release\liblpc_chip_18xx.a(timer_18xx_43xx.o)
                                0x77a (size before relaxing)

.comment        0x00000000       0x75
 .comment       0x00000000       0x75 ./src/arccomm.o
                                 0x76 (size before relaxing)
 .comment       0x00000075       0x76 ./src/arcdw.o
 .comment       0x00000075       0x76 ./src/arclayer.o
 .comment       0x00000075       0x76 C:\Local_OpellaXD\firmware\prj\fw_lpc1837\lpc_chip_18xx\Release\liblpc_chip_18xx.a(timer_18xx_43xx.o)
 .comment       0x00000075       0x76 c:/nxp/mcuxpressoide_11.0.0_2516/ide/plugins/com.nxp.mcuxpresso.tools.win32_11.0.0.201905131304/tools/bin/../lib/gcc/arm-none-eabi/8.2.1/../../../../arm-none-eabi/lib/thumb/v7-m/nofp\libcr_c.a(memset.o)

.ARM.attributes
                0x00000000       0x2b
 .ARM.attributes
                0x00000000       0x2d ./src/arccomm.o
 .ARM.attributes
                0x0000002d       0x2d ./src/arcdw.o
 .ARM.attributes
                0x0000005a       0x2d ./src/arclayer.o
 .ARM.attributes
                0x00000087       0x2d C:\Local_OpellaXD\firmware\prj\fw_lpc1837\lpc_chip_18xx\Release\liblpc_chip_18xx.a(timer_18xx_43xx.o)
 .ARM.attributes
                0x000000b4       0x2d c:/nxp/mcuxpressoide_11.0.0_2516/ide/plugins/com.nxp.mcuxpresso.tools.win32_11.0.0.201905131304/tools/bin/../lib/gcc/arm-none-eabi/8.2.1/../../../../arm-none-eabi/lib/thumb/v7-m/nofp\libcr_c.a(memset.o)
 .ARM.attributes
                0x000000e1       0x1b c:/nxp/mcuxpressoide_11.0.0_2516/ide/plugins/com.nxp.mcuxpresso.tools.win32_11.0.0.201905131304/tools/bin/../lib/gcc/arm-none-eabi/8.2.1/thumb/v7-m/nofp\libcr_eabihelpers.a(memcpy.o)

.debug_frame    0x00000000      0x4dc
 .debug_frame   0x00000000       0xc8 ./src/arccomm.o
 .debug_frame   0x000000c8       0x8c ./src/arcdw.o
 .debug_frame   0x00000154      0x328 ./src/arclayer.o
 .debug_frame   0x0000047c       0x60 C:\Local_OpellaXD\firmware\prj\fw_lpc1837\lpc_chip_18xx\Release\liblpc_chip_18xx.a(timer_18xx_43xx.o)
